{
  "contractName": "DefinableStateMachine",
  "abi": [
    {
      "constant": true,
      "inputs": [
        {
          "name": "",
          "type": "uint256"
        }
      ],
      "name": "states",
      "outputs": [
        {
          "name": "id",
          "type": "uint256"
        },
        {
          "name": "name",
          "type": "string"
        }
      ],
      "payable": false,
      "stateMutability": "view",
      "type": "function"
    },
    {
      "constant": true,
      "inputs": [],
      "name": "stateId",
      "outputs": [
        {
          "name": "",
          "type": "uint256"
        }
      ],
      "payable": false,
      "stateMutability": "view",
      "type": "function"
    },
    {
      "constant": false,
      "inputs": [],
      "name": "renounceOwnership",
      "outputs": [],
      "payable": false,
      "stateMutability": "nonpayable",
      "type": "function"
    },
    {
      "constant": true,
      "inputs": [],
      "name": "owner",
      "outputs": [
        {
          "name": "",
          "type": "address"
        }
      ],
      "payable": false,
      "stateMutability": "view",
      "type": "function"
    },
    {
      "constant": false,
      "inputs": [
        {
          "name": "_newOwner",
          "type": "address"
        }
      ],
      "name": "transferOwnership",
      "outputs": [],
      "payable": false,
      "stateMutability": "nonpayable",
      "type": "function"
    },
    {
      "anonymous": false,
      "inputs": [
        {
          "indexed": true,
          "name": "previousOwner",
          "type": "address"
        }
      ],
      "name": "OwnershipRenounced",
      "type": "event"
    },
    {
      "anonymous": false,
      "inputs": [
        {
          "indexed": true,
          "name": "previousOwner",
          "type": "address"
        },
        {
          "indexed": true,
          "name": "newOwner",
          "type": "address"
        }
      ],
      "name": "OwnershipTransferred",
      "type": "event"
    },
    {
      "constant": false,
      "inputs": [
        {
          "name": "_id",
          "type": "uint256"
        },
        {
          "name": "_name",
          "type": "string"
        }
      ],
      "name": "addState",
      "outputs": [],
      "payable": false,
      "stateMutability": "nonpayable",
      "type": "function"
    },
    {
      "constant": false,
      "inputs": [
        {
          "name": "_id",
          "type": "uint256"
        }
      ],
      "name": "deleteState",
      "outputs": [],
      "payable": false,
      "stateMutability": "nonpayable",
      "type": "function"
    },
    {
      "constant": false,
      "inputs": [
        {
          "name": "_stateId",
          "type": "uint256"
        },
        {
          "name": "_name",
          "type": "string"
        },
        {
          "name": "_conditionContract",
          "type": "address"
        },
        {
          "name": "_conditionSignature",
          "type": "bytes32"
        },
        {
          "name": "_triggerContract",
          "type": "address"
        },
        {
          "name": "_triggerSignature",
          "type": "bytes32"
        },
        {
          "name": "_nextStateId",
          "type": "uint256"
        },
        {
          "name": "_auto",
          "type": "bool"
        }
      ],
      "name": "addTransition",
      "outputs": [],
      "payable": false,
      "stateMutability": "nonpayable",
      "type": "function"
    },
    {
      "constant": false,
      "inputs": [
        {
          "name": "_stateId",
          "type": "uint256"
        },
        {
          "name": "_name",
          "type": "string"
        }
      ],
      "name": "deleteTransition",
      "outputs": [],
      "payable": false,
      "stateMutability": "nonpayable",
      "type": "function"
    }
  ],
  "bytecode": "0x6080604052336000806101000a81548173ffffffffffffffffffffffffffffffffffffffff021916908373ffffffffffffffffffffffffffffffffffffffff160217905550611563806100536000396000f300608060405260043610610099576000357c0100000000000000000000000000000000000000000000000000000000900463ffffffff168063017a91051461009e57806306d62e1f1461014b57806337eb390614610176578063453bccb6146101a35780636d076299146101e8578063715018a61461029f5780638da5cb5b146102b6578063c77cdf4a1461030d578063f2fde38b14610352575b600080fd5b3480156100aa57600080fd5b506100c960048036038101908080359060200190929190505050610395565b6040518083815260200180602001828103825283818151815260200191508051906020019080838360005b8381101561010f5780820151818401526020810190506100f4565b50505050905090810190601f16801561013c5780820380516001836020036101000a031916815260200191505b50935050505060405180910390f35b34801561015757600080fd5b50610160610451565b6040518082815260200191505060405180910390f35b34801561018257600080fd5b506101a160048036038101908080359060200190929190505050610457565b005b3480156101af57600080fd5b506101e6600480360381019080803590602001909291908035906020019082018035906020019190919293919293905050506104f3565b005b3480156101f457600080fd5b5061029d60048036038101908080359060200190929190803590602001908201803590602001919091929391929390803573ffffffffffffffffffffffffffffffffffffffff1690602001909291908035600019169060200190929190803573ffffffffffffffffffffffffffffffffffffffff169060200190929190803560001916906020019092919080359060200190929190803515159060200190929190505050610737565b005b3480156102ab57600080fd5b506102b4610d17565b005b3480156102c257600080fd5b506102cb610e19565b604051808273ffffffffffffffffffffffffffffffffffffffff1673ffffffffffffffffffffffffffffffffffffffff16815260200191505060405180910390f35b34801561031957600080fd5b5061035060048036038101908080359060200190929190803590602001908201803590602001919091929391929390505050610e3e565b005b34801561035e57600080fd5b50610393600480360381019080803573ffffffffffffffffffffffffffffffffffffffff169060200190929190505050611109565b005b6001602052806000526040600020600091509050806000015490806001018054600181600116156101000203166002900480601f0160208091040260200160405190810160405280929190818152602001828054600181600116156101000203166002900480156104475780601f1061041c57610100808354040283529160200191610447565b820191906000526020600020905b81548152906001019060200180831161042a57829003601f168201915b5050505050905082565b60025481565b6000809054906101000a900473ffffffffffffffffffffffffffffffffffffffff1673ffffffffffffffffffffffffffffffffffffffff163373ffffffffffffffffffffffffffffffffffffffff161415156104b257600080fd5b600160008281526020019081526020016000206000808201600090556001820160006104de919061126a565b6002820160006104ee91906112b2565b505050565b6000809054906101000a900473ffffffffffffffffffffffffffffffffffffffff1673ffffffffffffffffffffffffffffffffffffffff163373ffffffffffffffffffffffffffffffffffffffff1614151561054e57600080fd5b600083141515156105c7576040517f08c379a00000000000000000000000000000000000000000000000000000000081526004018080602001828103825260108152602001807f49642030206e6f7420616c6c6f7765640000000000000000000000000000000081525060200191505060405180910390fd5b60006001600085815260200190815260200160002060000154141515610655576040517f08c379a00000000000000000000000000000000000000000000000000000000081526004018080602001828103825260148152602001807f537461746520616c72656164792065786973747300000000000000000000000081525060200191505060405180910390fd5b60606040519081016040528084815260200183838080601f016020809104026020016040519081016040528093929190818152602001838380828437820191505050505050815260200160006040519080825280602002602001820160405280156106d457816020015b60608152602001906001900390816106bf5790505b50815250600160008581526020019081526020016000206000820151816000015560208201518160010190805190602001906107119291906112d3565b50604082015181600201908051906020019061072e929190611353565b50905050505050565b6000809054906101000a900473ffffffffffffffffffffffffffffffffffffffff1673ffffffffffffffffffffffffffffffffffffffff163373ffffffffffffffffffffffffffffffffffffffff1614151561079257600080fd5b886000600160008381526020019081526020016000206000015414151515610822576040517f08c379a00000000000000000000000000000000000000000000000000000000081526004018080602001828103825260138152602001807f537461746520646f65736e27742065786973740000000000000000000000000081525060200191505060405180910390fd5b60008989905011151561089d576040517f08c379a00000000000000000000000000000000000000000000000000000000081526004018080602001828103825260188152602001807f5472616e736974696f6e206e616d65207265717569726564000000000000000081525060200191505060405180910390fd5b600073ffffffffffffffffffffffffffffffffffffffff168773ffffffffffffffffffffffffffffffffffffffff1614151515610942576040517f08c379a000000000000000000000000000000000000000000000000000000000815260040180806020018281038252601b8152602001807f436f6e646974696f6e20636f6e7472616374207265717569726564000000000081525060200191505060405180910390fd5b600073ffffffffffffffffffffffffffffffffffffffff168573ffffffffffffffffffffffffffffffffffffffff16141515156109e7576040517f08c379a00000000000000000000000000000000000000000000000000000000081526004018080602001828103825260198152602001807f5472696767657220636f6e74726163742072657175697265640000000000000081525060200191505060405180910390fd5b6000600160008c81526020019081526020016000206003018a8a604051808383808284378201915050925050509081526020016040518091039020600001805460018160011615610100020316600290049050141515610aaf576040517f08c379a00000000000000000000000000000000000000000000000000000000081526004018080602001828103825260198152602001807f5472616e736974696f6e20616c7265616479206578697374730000000000000081525060200191505060405180910390fd5b60a0604051908101604052808a8a8080601f016020809104026020016040519081016040528093929190818152602001838380828437820191505050505050815260200184815260200160408051908101604052808a73ffffffffffffffffffffffffffffffffffffffff1681526020018960001916815250815260200160408051908101604052808873ffffffffffffffffffffffffffffffffffffffff16815260200187600019168152508152602001831515815250600160008c81526020019081526020016000206003018a8a6040518083838082843782019150509250505090815260200160405180910390206000820151816000019080519060200190610bbc9291906112d3565b506020820151816001015560408201518160020160008201518160000160006101000a81548173ffffffffffffffffffffffffffffffffffffffff021916908373ffffffffffffffffffffffffffffffffffffffff16021790555060208201518160010190600019169055505060608201518160040160008201518160000160006101000a81548173ffffffffffffffffffffffffffffffffffffffff021916908373ffffffffffffffffffffffffffffffffffffffff16021790555060208201518160010190600019169055505060808201518160060160006101000a81548160ff0219169083151502179055509050508115610d0b57600160008b8152602001908152602001600020600201898990918060018154018082558091505090600182039060005260206000200160009091929390919293909192909192509190610d089291906113b3565b50505b50505050505050505050565b6000809054906101000a900473ffffffffffffffffffffffffffffffffffffffff1673ffffffffffffffffffffffffffffffffffffffff163373ffffffffffffffffffffffffffffffffffffffff16141515610d7257600080fd5b6000809054906101000a900473ffffffffffffffffffffffffffffffffffffffff1673ffffffffffffffffffffffffffffffffffffffff167ff8df31144d9c2f0f6b59d69b8b98abd5459d07f2742c4df920b25aae33c6482060405160405180910390a260008060006101000a81548173ffffffffffffffffffffffffffffffffffffffff021916908373ffffffffffffffffffffffffffffffffffffffff160217905550565b6000809054906101000a900473ffffffffffffffffffffffffffffffffffffffff1681565b60008060008060009054906101000a900473ffffffffffffffffffffffffffffffffffffffff1673ffffffffffffffffffffffffffffffffffffffff163373ffffffffffffffffffffffffffffffffffffffff16141515610e9e57600080fd5b60016000878152602001908152602001600020925082600301858560405180838380828437820191505092505050908152602001604051809103902060060160009054906101000a900460ff161561103f57600090505b8260020180549050811015610fc3578484604051808383808284378201915050925050506040518091039020600019168360020182815481101515610f3657fe5b906000526020600020016040518082805460018160011615610100020316600290048015610f9b5780601f10610f79576101008083540402835291820191610f9b565b820191906000526020600020905b815481529060010190602001808311610f87575b50509150506040518091039020600019161415610fb6578091505b8080600101915050610ef5565b826002016001846002018054905003815481101515610fde57fe5b906000526020600020018360020182815481101515610ff957fe5b906000526020600020019080546001816001161561010002031660029004611022929190611433565b506001836002018181805490500391508161103d91906114ba565b505b82600301858560405180838380828437820191505092505050908152602001604051809103902060008082016000611077919061126a565b600182016000905560028201600080820160006101000a81549073ffffffffffffffffffffffffffffffffffffffff02191690556001820160009055505060048201600080820160006101000a81549073ffffffffffffffffffffffffffffffffffffffff0219169055600182016000905550506006820160006101000a81549060ff02191690555050505050505050565b6000809054906101000a900473ffffffffffffffffffffffffffffffffffffffff1673ffffffffffffffffffffffffffffffffffffffff163373ffffffffffffffffffffffffffffffffffffffff1614151561116457600080fd5b61116d81611170565b50565b600073ffffffffffffffffffffffffffffffffffffffff168173ffffffffffffffffffffffffffffffffffffffff16141515156111ac57600080fd5b8073ffffffffffffffffffffffffffffffffffffffff166000809054906101000a900473ffffffffffffffffffffffffffffffffffffffff1673ffffffffffffffffffffffffffffffffffffffff167f8be0079c531659141344cd1fd0a4f28419497f9722a3daafe3b4186f6b6457e060405160405180910390a3806000806101000a81548173ffffffffffffffffffffffffffffffffffffffff021916908373ffffffffffffffffffffffffffffffffffffffff16021790555050565b50805460018160011615610100020316600290046000825580601f1061129057506112af565b601f0160209004906000526020600020908101906112ae91906114e6565b5b50565b50805460008255906000526020600020908101906112d0919061150b565b50565b828054600181600116156101000203166002900490600052602060002090601f016020900481019282601f1061131457805160ff1916838001178555611342565b82800160010185558215611342579182015b82811115611341578251825591602001919060010190611326565b5b50905061134f91906114e6565b5090565b8280548282559060005260206000209081019282156113a2579160200282015b828111156113a15782518290805190602001906113919291906112d3565b5091602001919060010190611373565b5b5090506113af919061150b565b5090565b828054600181600116156101000203166002900490600052602060002090601f016020900481019282601f106113f457803560ff1916838001178555611422565b82800160010185558215611422579182015b82811115611421578235825591602001919060010190611406565b5b50905061142f91906114e6565b5090565b828054600181600116156101000203166002900490600052602060002090601f016020900481019282601f1061146c57805485556114a9565b828001600101855582156114a957600052602060002091601f016020900482015b828111156114a857825482559160010191906001019061148d565b5b5090506114b691906114e6565b5090565b8154818355818111156114e1578183600052602060002091820191016114e0919061150b565b5b505050565b61150891905b808211156115045760008160009055506001016114ec565b5090565b90565b61153491905b808211156115305760008181611527919061126a565b50600101611511565b5090565b905600a165627a7a7230582002ee300b5acd920a61429a103d86381e7f4b6924f80ab31f73162e5c369d6f780029",
  "source": "pragma solidity ^0.4.24;\n\nimport \"./StateMachineStorage.sol\";\n\ncontract DefinableStateMachine is StateMachineStorage {\n\n    uint256 internal constant maxTransitions = 100;\n\n    modifier onlyIfStateExists(uint256 _stateId) {\n        require(states[_stateId].id != 0, \"State doesn't exist\");\n        _;\n    }\n\n    function addState(uint256 _id, string _name) external onlyOwner {\n        require(_id != 0, \"Id 0 not allowed\");\n        require(states[_id].id == 0, \"State already exists\");\n        states[_id] = State(_id, _name, new string[](0));\n    }\n\n    function deleteState(uint256 _id) external onlyOwner {\n        delete states[_id];\n    }\n\n    function addTransition(\n        uint256 _stateId, \n        string _name,\n        address _conditionContract,\n        bytes32 _conditionSignature,\n        address _triggerContract,\n        bytes32 _triggerSignature,\n        uint256 _nextStateId,\n        bool _auto\n    ) external onlyOwner onlyIfStateExists(_stateId) {\n        require(bytes(_name).length > 0, \"Transition name required\");\n        require(_conditionContract != address(0), \"Condition contract required\");\n        require(_triggerContract != address(0), \"Trigger contract required\");\n        require(bytes(states[_stateId].transitions[_name].name).length == 0, \"Transition already exists\");\n        \n        states[_stateId].transitions[_name] = Transition({\n            name: _name,\n            condition: Func(_conditionContract, _conditionSignature),\n            trigger: Func(_triggerContract, _triggerSignature),\n            auto: _auto,\n            nextStateId: _nextStateId\n        });\n\n        if(_auto) states[_stateId].autoTransitions.push(_name);\n    }\n\n    function deleteTransition(uint256 _stateId, string _name) external onlyOwner {\n        State storage state = states[_stateId];\n\n        if(state.transitions[_name].auto) {\n            uint256 autoIndex;\n            for(uint256 i = 0; i < state.autoTransitions.length; i++) {\n                if(keccak256(state.autoTransitions[i]) == keccak256(_name) ) \n                    autoIndex = i;\n            }\n            \n            state.autoTransitions[i] = state.autoTransitions[state.autoTransitions.length - 1];\n            state.autoTransitions.length -= 1;\n        }\n        delete state.transitions[_name];\n    }\n}",
  "sourcePath": "/home/darek/state-machine/contracts/DefinableStateMachine.sol",
  "compiler": {
    "name": "solc",
    "version": "0.4.24+commit.e67f0147.Emscripten.clang"
  },
  "schemaVersion": "2.0.1",
  "updatedAt": "2018-09-15T15:40:41.757Z"
}