{
  "contractName": "PassTheBall",
  "abi": [
    {
      "constant": true,
      "inputs": [
        {
          "name": "",
          "type": "uint256"
        }
      ],
      "name": "states",
      "outputs": [
        {
          "name": "id",
          "type": "uint256"
        },
        {
          "name": "name",
          "type": "string"
        }
      ],
      "payable": false,
      "stateMutability": "view",
      "type": "function"
    },
    {
      "constant": true,
      "inputs": [],
      "name": "stateId",
      "outputs": [
        {
          "name": "",
          "type": "uint256"
        }
      ],
      "payable": false,
      "stateMutability": "view",
      "type": "function"
    },
    {
      "constant": false,
      "inputs": [],
      "name": "renounceOwnership",
      "outputs": [],
      "payable": false,
      "stateMutability": "nonpayable",
      "type": "function"
    },
    {
      "constant": true,
      "inputs": [],
      "name": "owner",
      "outputs": [
        {
          "name": "",
          "type": "address"
        }
      ],
      "payable": false,
      "stateMutability": "view",
      "type": "function"
    },
    {
      "constant": false,
      "inputs": [
        {
          "name": "_newOwner",
          "type": "address"
        }
      ],
      "name": "transferOwnership",
      "outputs": [],
      "payable": false,
      "stateMutability": "nonpayable",
      "type": "function"
    },
    {
      "anonymous": false,
      "inputs": [
        {
          "indexed": true,
          "name": "previousOwner",
          "type": "address"
        }
      ],
      "name": "OwnershipRenounced",
      "type": "event"
    },
    {
      "anonymous": false,
      "inputs": [
        {
          "indexed": true,
          "name": "previousOwner",
          "type": "address"
        },
        {
          "indexed": true,
          "name": "newOwner",
          "type": "address"
        }
      ],
      "name": "OwnershipTransferred",
      "type": "event"
    },
    {
      "constant": false,
      "inputs": [],
      "name": "startGame",
      "outputs": [],
      "payable": false,
      "stateMutability": "nonpayable",
      "type": "function"
    },
    {
      "constant": false,
      "inputs": [],
      "name": "endGame",
      "outputs": [],
      "payable": false,
      "stateMutability": "nonpayable",
      "type": "function"
    },
    {
      "constant": false,
      "inputs": [],
      "name": "passToA",
      "outputs": [],
      "payable": false,
      "stateMutability": "nonpayable",
      "type": "function"
    },
    {
      "constant": false,
      "inputs": [],
      "name": "passToB",
      "outputs": [],
      "payable": false,
      "stateMutability": "nonpayable",
      "type": "function"
    },
    {
      "constant": false,
      "inputs": [],
      "name": "passToC",
      "outputs": [],
      "payable": false,
      "stateMutability": "nonpayable",
      "type": "function"
    },
    {
      "constant": false,
      "inputs": [],
      "name": "timeOut",
      "outputs": [],
      "payable": false,
      "stateMutability": "nonpayable",
      "type": "function"
    },
    {
      "constant": false,
      "inputs": [],
      "name": "canPassToA",
      "outputs": [],
      "payable": false,
      "stateMutability": "nonpayable",
      "type": "function"
    },
    {
      "constant": false,
      "inputs": [],
      "name": "canPassToB",
      "outputs": [],
      "payable": false,
      "stateMutability": "nonpayable",
      "type": "function"
    },
    {
      "constant": false,
      "inputs": [],
      "name": "canPassToC",
      "outputs": [],
      "payable": false,
      "stateMutability": "nonpayable",
      "type": "function"
    }
  ],
  "bytecode": "0x6080604052336000806101000a81548173ffffffffffffffffffffffffffffffffffffffff021916908373ffffffffffffffffffffffffffffffffffffffff160217905550610df8806100536000396000f3006080604052600436106100d0576000357c0100000000000000000000000000000000000000000000000000000000900463ffffffff168063017a9105146100d557806306d62e1f14610182578063614d85e1146101ad57806367aef247146101c45780636cbc2ded146101db578063715018a6146101f25780638da5cb5b14610209578063986af6be14610260578063a4b935a914610277578063c0e19f081461028e578063d65ab5f2146102a5578063d83986cb146102bc578063ee22d744146102d3578063f2fde38b146102ea575b600080fd5b3480156100e157600080fd5b506101006004803603810190808035906020019092919050505061032d565b6040518083815260200180602001828103825283818151815260200191508051906020019080838360005b8381101561014657808201518184015260208101905061012b565b50505050905090810190601f1680156101735780820380516001836020036101000a031916815260200191505b50935050505060405180910390f35b34801561018e57600080fd5b506101976103e9565b6040518082815260200191505060405180910390f35b3480156101b957600080fd5b506101c26103ef565b005b3480156101d057600080fd5b506101d96104a8565b005b3480156101e757600080fd5b506101f06105e3565b005b3480156101fe57600080fd5b506102076106a5565b005b34801561021557600080fd5b5061021e6107a7565b604051808273ffffffffffffffffffffffffffffffffffffffff1673ffffffffffffffffffffffffffffffffffffffff16815260200191505060405180910390f35b34801561026c57600080fd5b506102756107cc565b005b34801561028357600080fd5b5061028c61084d565b005b34801561029a57600080fd5b506102a36108ce565b005b3480156102b157600080fd5b506102ba610a09565b005b3480156102c857600080fd5b506102d1610a4a565b005b3480156102df57600080fd5b506102e8610acb565b005b3480156102f657600080fd5b5061032b600480360381019080803573ffffffffffffffffffffffffffffffffffffffff169060200190929190505050610c06565b005b6001602052806000526040600020600091509050806000015490806001018054600181600116156101000203166002900480601f0160208091040260200160405190810160405280929190818152602001828054600181600116156101000203166002900480156103df5780601f106103b4576101008083540402835291602001916103df565b820191906000526020600020905b8154815290600101906020018083116103c257829003601f168201915b5050505050905082565b60025481565b600561042f60405180807f7064625f7374617274426c6f636b000000000000000000000000000000000000815250600e0190506040518091039020610c6d565b43031115156104a6576040517f08c379a000000000000000000000000000000000000000000000000000000000815260040180806020018281038252600a8152602001807f47616d6520656e6465640000000000000000000000000000000000000000000081525060200191505060405180910390fd5b565b61056d6104e960405180807f7064625f70617373657341000000000000000000000000000000000000000000815250600b0190506040518091039020610c6d565b61052760405180807f7064625f70617373657342000000000000000000000000000000000000000000815250600b0190506040518091039020610c6d565b600161056760405180807f7064625f70617373657343000000000000000000000000000000000000000000815250600b0190506040518091039020610c6d565b01610c7d565b15156105e1576040517f08c379a00000000000000000000000000000000000000000000000000000000081526004018080602001828103825260108152602001807f50617373206e6f7420616c6c6f7765640000000000000000000000000000000081525060200191505060405180910390fd5b565b61062360405180807f7064625f70617373657341000000000000000000000000000000000000000000815250600b01905060405180910390206000610cc5565b61066360405180807f7064625f70617373657342000000000000000000000000000000000000000000815250600b01905060405180910390206000610cc5565b6106a360405180807f7064625f70617373657343000000000000000000000000000000000000000000815250600b01905060405180910390206000610cc5565b565b6000809054906101000a900473ffffffffffffffffffffffffffffffffffffffff1673ffffffffffffffffffffffffffffffffffffffff163373ffffffffffffffffffffffffffffffffffffffff1614151561070057600080fd5b6000809054906101000a900473ffffffffffffffffffffffffffffffffffffffff1673ffffffffffffffffffffffffffffffffffffffff167ff8df31144d9c2f0f6b59d69b8b98abd5459d07f2742c4df920b25aae33c6482060405160405180910390a260008060006101000a81548173ffffffffffffffffffffffffffffffffffffffff021916908373ffffffffffffffffffffffffffffffffffffffff160217905550565b6000809054906101000a900473ffffffffffffffffffffffffffffffffffffffff1681565b61084b60405180807f7064625f70617373657341000000000000000000000000000000000000000000815250600b0190506040518091039020600161084560405180807f7064625f70617373657341000000000000000000000000000000000000000000815250600b0190506040518091039020610c6d565b01610cc5565b565b6108cc60405180807f7064625f70617373657342000000000000000000000000000000000000000000815250600b019050604051809103902060016108c660405180807f7064625f70617373657342000000000000000000000000000000000000000000815250600b0190506040518091039020610c6d565b01610cc5565b565b610993600161091160405180807f7064625f70617373657341000000000000000000000000000000000000000000815250600b0190506040518091039020610c6d565b0161095060405180807f7064625f70617373657342000000000000000000000000000000000000000000815250600b0190506040518091039020610c6d565b61098e60405180807f7064625f70617373657343000000000000000000000000000000000000000000815250600b0190506040518091039020610c6d565b610c7d565b1515610a07576040517f08c379a00000000000000000000000000000000000000000000000000000000081526004018080602001828103825260108152602001807f50617373206e6f7420616c6c6f7765640000000000000000000000000000000081525060200191505060405180910390fd5b565b610a4860405180807f7064625f7374617274426c6f636b000000000000000000000000000000000000815250600e019050604051809103902043610cc5565b565b610ac960405180807f7064625f70617373657342000000000000000000000000000000000000000000815250600b01905060405180910390206001610ac360405180807f7064625f70617373657342000000000000000000000000000000000000000000815250600b0190506040518091039020610c6d565b01610cc5565b565b610b90610b0c60405180807f7064625f70617373657341000000000000000000000000000000000000000000815250600b0190506040518091039020610c6d565b6001610b4c60405180807f7064625f70617373657342000000000000000000000000000000000000000000815250600b0190506040518091039020610c6d565b01610b8b60405180807f7064625f70617373657343000000000000000000000000000000000000000000815250600b0190506040518091039020610c6d565b610c7d565b1515610c04576040517f08c379a00000000000000000000000000000000000000000000000000000000081526004018080602001828103825260108152602001807f50617373206e6f7420616c6c6f7765640000000000000000000000000000000081525060200191505060405180910390fd5b565b6000809054906101000a900473ffffffffffffffffffffffffffffffffffffffff1673ffffffffffffffffffffffffffffffffffffffff163373ffffffffffffffffffffffffffffffffffffffff16141515610c6157600080fd5b610c6a81610cd2565b50565b6000808290508054915050919050565b600080600085915085905081851115610c9857849150610c9c565b8490505b81841115610ca8578391505b80841015610cb4578390505b600381830310925050509392505050565b6000829050818155505050565b600073ffffffffffffffffffffffffffffffffffffffff168173ffffffffffffffffffffffffffffffffffffffff1614151515610d0e57600080fd5b8073ffffffffffffffffffffffffffffffffffffffff166000809054906101000a900473ffffffffffffffffffffffffffffffffffffffff1673ffffffffffffffffffffffffffffffffffffffff167f8be0079c531659141344cd1fd0a4f28419497f9722a3daafe3b4186f6b6457e060405160405180910390a3806000806101000a81548173ffffffffffffffffffffffffffffffffffffffff021916908373ffffffffffffffffffffffffffffffffffffffff160217905550505600a165627a7a723058208b849f9eca1347d82773d61e15275034fd7b9f832e37305cf5af75bd2d985ca00029",
  "source": "pragma solidity ^0.4.24;\n\nimport \"./StateMachineStorage.sol\";\n\ncontract PassTheBall is StateMachineStorage {\n    \n    uint256 internal constant gameDuration = 5;\n\n    bytes32 internal constant startBlockSlot = keccak256(\"pdb_startBlock\");\n\n    bytes32 internal constant passesASlot = keccak256(\"pdb_passesA\");\n    bytes32 internal constant passesBSlot = keccak256(\"pdb_passesB\");\n    bytes32 internal constant passesCSlot = keccak256(\"pdb_passesC\");\n\n    //triggers\n    function startGame() public {\n        setVar(startBlockSlot, block.number);\n    }\n\n    function endGame() public {\n        setVar(passesASlot, 0);\n        setVar(passesBSlot, 0);\n        setVar(passesCSlot, 0);\n    }\n\n    function passToA() public {\n        setVar(passesASlot, getVar(passesASlot) + 1);\n    }\n\n    function passToB() public {\n        setVar(passesBSlot, getVar(passesBSlot) + 1);\n    }\n    \n    function passToC() public {\n        setVar(passesBSlot, getVar(passesBSlot) + 1);\n    }\n\n    //conditions\n    function timeOut() {\n        require(block.number - getVar(startBlockSlot) > gameDuration, \"Game ended\");\n    }\n\n    function canPassToA() public {\n        require(passAllowed(getVar(passesASlot)+1, getVar(passesBSlot), getVar(passesCSlot)), \"Pass not allowed\");\n    }\n\n    function canPassToB() public {\n        require(passAllowed(getVar(passesASlot), getVar(passesBSlot)+1, getVar(passesCSlot)), \"Pass not allowed\");\n    }\n\n    function canPassToC() public {\n        require(passAllowed(getVar(passesASlot), getVar(passesBSlot), getVar(passesCSlot)+1), \"Pass not allowed\");\n    }\n\n    function passAllowed(uint256 _a, uint256 _b, uint256 _c) internal pure returns (bool) {\n        uint256 max = _a;\n        uint256 min = _a;\n        if(_b > max) max = _b; else min = _b;\n        if(_c > max) max = _c;\n        if(_c < min) min = _c;\n\n        return max - min < 3;\n    }\n\n    //storage\n    function setVar(bytes32 _slot, uint256 _passes) internal {\n        bytes32 slot = _slot;\n        assembly {\n            sstore(slot, _passes)\n        }\n    }\n\n    function getVar(bytes32 _slot) internal view returns(uint256 _passes) {\n        bytes32 slot = _slot;\n        assembly {\n            _passes := sload(slot)\n        }\n    }\n}",
  "sourcePath": "/home/darek/state-machine/contracts/PassTheBall.sol",
  "compiler": {
    "name": "solc",
    "version": "0.4.24+commit.e67f0147.Emscripten.clang"
  },
  "schemaVersion": "2.0.1",
  "updatedAt": "2018-09-15T15:40:42.450Z"
}