{
  "contractName": "StateMachine",
  "abi": [
    {
      "constant": true,
      "inputs": [
        {
          "name": "",
          "type": "uint256"
        }
      ],
      "name": "states",
      "outputs": [
        {
          "name": "id",
          "type": "uint256"
        },
        {
          "name": "name",
          "type": "string"
        }
      ],
      "payable": false,
      "stateMutability": "view",
      "type": "function"
    },
    {
      "constant": true,
      "inputs": [],
      "name": "stateId",
      "outputs": [
        {
          "name": "",
          "type": "uint256"
        }
      ],
      "payable": false,
      "stateMutability": "view",
      "type": "function"
    },
    {
      "constant": false,
      "inputs": [
        {
          "name": "_id",
          "type": "uint256"
        }
      ],
      "name": "deleteState",
      "outputs": [],
      "payable": false,
      "stateMutability": "nonpayable",
      "type": "function"
    },
    {
      "constant": false,
      "inputs": [
        {
          "name": "_id",
          "type": "uint256"
        },
        {
          "name": "_name",
          "type": "string"
        }
      ],
      "name": "addState",
      "outputs": [],
      "payable": false,
      "stateMutability": "nonpayable",
      "type": "function"
    },
    {
      "constant": false,
      "inputs": [
        {
          "name": "_stateId",
          "type": "uint256"
        },
        {
          "name": "_name",
          "type": "string"
        },
        {
          "name": "_conditionContract",
          "type": "address"
        },
        {
          "name": "_conditionSignature",
          "type": "bytes32"
        },
        {
          "name": "_triggerContract",
          "type": "address"
        },
        {
          "name": "_triggerSignature",
          "type": "bytes32"
        },
        {
          "name": "_nextStateId",
          "type": "uint256"
        },
        {
          "name": "_auto",
          "type": "bool"
        }
      ],
      "name": "addTransition",
      "outputs": [],
      "payable": false,
      "stateMutability": "nonpayable",
      "type": "function"
    },
    {
      "constant": false,
      "inputs": [],
      "name": "renounceOwnership",
      "outputs": [],
      "payable": false,
      "stateMutability": "nonpayable",
      "type": "function"
    },
    {
      "constant": true,
      "inputs": [],
      "name": "owner",
      "outputs": [
        {
          "name": "",
          "type": "address"
        }
      ],
      "payable": false,
      "stateMutability": "view",
      "type": "function"
    },
    {
      "constant": false,
      "inputs": [
        {
          "name": "_stateId",
          "type": "uint256"
        },
        {
          "name": "_name",
          "type": "string"
        }
      ],
      "name": "deleteTransition",
      "outputs": [],
      "payable": false,
      "stateMutability": "nonpayable",
      "type": "function"
    },
    {
      "constant": false,
      "inputs": [
        {
          "name": "_newOwner",
          "type": "address"
        }
      ],
      "name": "transferOwnership",
      "outputs": [],
      "payable": false,
      "stateMutability": "nonpayable",
      "type": "function"
    },
    {
      "anonymous": false,
      "inputs": [
        {
          "indexed": true,
          "name": "previousOwner",
          "type": "address"
        }
      ],
      "name": "OwnershipRenounced",
      "type": "event"
    },
    {
      "anonymous": false,
      "inputs": [
        {
          "indexed": true,
          "name": "previousOwner",
          "type": "address"
        },
        {
          "indexed": true,
          "name": "newOwner",
          "type": "address"
        }
      ],
      "name": "OwnershipTransferred",
      "type": "event"
    },
    {
      "constant": false,
      "inputs": [
        {
          "name": "_name",
          "type": "string"
        }
      ],
      "name": "transition",
      "outputs": [
        {
          "name": "",
          "type": "bool"
        }
      ],
      "payable": false,
      "stateMutability": "nonpayable",
      "type": "function"
    }
  ],
  "bytecode": "0x6080604052336000806101000a81548173ffffffffffffffffffffffffffffffffffffffff021916908373ffffffffffffffffffffffffffffffffffffffff160217905550611cc6806100536000396000f3006080604052600436106100a4576000357c0100000000000000000000000000000000000000000000000000000000900463ffffffff168063017a9105146100a957806306d62e1f1461015657806337eb390614610181578063453bccb6146101ae5780636d076299146101f3578063715018a6146102aa5780638da5cb5b146102c1578063b16f5d7814610318578063c77cdf4a14610399578063f2fde38b146103de575b600080fd5b3480156100b557600080fd5b506100d460048036038101908080359060200190929190505050610421565b6040518083815260200180602001828103825283818151815260200191508051906020019080838360005b8381101561011a5780820151818401526020810190506100ff565b50505050905090810190601f1680156101475780820380516001836020036101000a031916815260200191505b50935050505060405180910390f35b34801561016257600080fd5b5061016b6104dd565b6040518082815260200191505060405180910390f35b34801561018d57600080fd5b506101ac600480360381019080803590602001909291905050506104e3565b005b3480156101ba57600080fd5b506101f16004803603810190808035906020019092919080359060200190820180359060200191909192939192939050505061057f565b005b3480156101ff57600080fd5b506102a860048036038101908080359060200190929190803590602001908201803590602001919091929391929390803573ffffffffffffffffffffffffffffffffffffffff1690602001909291908035600019169060200190929190803573ffffffffffffffffffffffffffffffffffffffff1690602001909291908035600019169060200190929190803590602001909291908035151590602001909291905050506107c3565b005b3480156102b657600080fd5b506102bf610da3565b005b3480156102cd57600080fd5b506102d6610ea5565b604051808273ffffffffffffffffffffffffffffffffffffffff1673ffffffffffffffffffffffffffffffffffffffff16815260200191505060405180910390f35b34801561032457600080fd5b5061037f600480360381019080803590602001908201803590602001908080601f0160208091040260200160405190810160405280939291908181526020018383808284378201915050505050509192919290505050610eca565b604051808215151515815260200191505060405180910390f35b3480156103a557600080fd5b506103dc60048036038101908080359060200190929190803590602001908201803590602001919091929391929390505050611245565b005b3480156103ea57600080fd5b5061041f600480360381019080803573ffffffffffffffffffffffffffffffffffffffff169060200190929190505050611510565b005b6001602052806000526040600020600091509050806000015490806001018054600181600116156101000203166002900480601f0160208091040260200160405190810160405280929190818152602001828054600181600116156101000203166002900480156104d35780601f106104a8576101008083540402835291602001916104d3565b820191906000526020600020905b8154815290600101906020018083116104b657829003601f168201915b5050505050905082565b60025481565b6000809054906101000a900473ffffffffffffffffffffffffffffffffffffffff1673ffffffffffffffffffffffffffffffffffffffff163373ffffffffffffffffffffffffffffffffffffffff1614151561053e57600080fd5b6001600082815260200190815260200160002060008082016000905560018201600061056a91906119cd565b60028201600061057a9190611a15565b505050565b6000809054906101000a900473ffffffffffffffffffffffffffffffffffffffff1673ffffffffffffffffffffffffffffffffffffffff163373ffffffffffffffffffffffffffffffffffffffff161415156105da57600080fd5b60008314151515610653576040517f08c379a00000000000000000000000000000000000000000000000000000000081526004018080602001828103825260108152602001807f49642030206e6f7420616c6c6f7765640000000000000000000000000000000081525060200191505060405180910390fd5b600060016000858152602001908152602001600020600001541415156106e1576040517f08c379a00000000000000000000000000000000000000000000000000000000081526004018080602001828103825260148152602001807f537461746520616c72656164792065786973747300000000000000000000000081525060200191505060405180910390fd5b60606040519081016040528084815260200183838080601f0160208091040260200160405190810160405280939291908181526020018383808284378201915050505050508152602001600060405190808252806020026020018201604052801561076057816020015b606081526020019060019003908161074b5790505b508152506001600085815260200190815260200160002060008201518160000155602082015181600101908051906020019061079d929190611a36565b5060408201518160020190805190602001906107ba929190611ab6565b50905050505050565b6000809054906101000a900473ffffffffffffffffffffffffffffffffffffffff1673ffffffffffffffffffffffffffffffffffffffff163373ffffffffffffffffffffffffffffffffffffffff1614151561081e57600080fd5b8860006001600083815260200190815260200160002060000154141515156108ae576040517f08c379a00000000000000000000000000000000000000000000000000000000081526004018080602001828103825260138152602001807f537461746520646f65736e27742065786973740000000000000000000000000081525060200191505060405180910390fd5b600089899050111515610929576040517f08c379a00000000000000000000000000000000000000000000000000000000081526004018080602001828103825260188152602001807f5472616e736974696f6e206e616d65207265717569726564000000000000000081525060200191505060405180910390fd5b600073ffffffffffffffffffffffffffffffffffffffff168773ffffffffffffffffffffffffffffffffffffffff16141515156109ce576040517f08c379a000000000000000000000000000000000000000000000000000000000815260040180806020018281038252601b8152602001807f436f6e646974696f6e20636f6e7472616374207265717569726564000000000081525060200191505060405180910390fd5b600073ffffffffffffffffffffffffffffffffffffffff168573ffffffffffffffffffffffffffffffffffffffff1614151515610a73576040517f08c379a00000000000000000000000000000000000000000000000000000000081526004018080602001828103825260198152602001807f5472696767657220636f6e74726163742072657175697265640000000000000081525060200191505060405180910390fd5b6000600160008c81526020019081526020016000206003018a8a604051808383808284378201915050925050509081526020016040518091039020600001805460018160011615610100020316600290049050141515610b3b576040517f08c379a00000000000000000000000000000000000000000000000000000000081526004018080602001828103825260198152602001807f5472616e736974696f6e20616c7265616479206578697374730000000000000081525060200191505060405180910390fd5b60a0604051908101604052808a8a8080601f016020809104026020016040519081016040528093929190818152602001838380828437820191505050505050815260200184815260200160408051908101604052808a73ffffffffffffffffffffffffffffffffffffffff1681526020018960001916815250815260200160408051908101604052808873ffffffffffffffffffffffffffffffffffffffff16815260200187600019168152508152602001831515815250600160008c81526020019081526020016000206003018a8a6040518083838082843782019150509250505090815260200160405180910390206000820151816000019080519060200190610c48929190611a36565b506020820151816001015560408201518160020160008201518160000160006101000a81548173ffffffffffffffffffffffffffffffffffffffff021916908373ffffffffffffffffffffffffffffffffffffffff16021790555060208201518160010190600019169055505060608201518160040160008201518160000160006101000a81548173ffffffffffffffffffffffffffffffffffffffff021916908373ffffffffffffffffffffffffffffffffffffffff16021790555060208201518160010190600019169055505060808201518160060160006101000a81548160ff0219169083151502179055509050508115610d9757600160008b8152602001908152602001600020600201898990918060018154018082558091505090600182039060005260206000200160009091929390919293909192909192509190610d94929190611b16565b50505b50505050505050505050565b6000809054906101000a900473ffffffffffffffffffffffffffffffffffffffff1673ffffffffffffffffffffffffffffffffffffffff163373ffffffffffffffffffffffffffffffffffffffff16141515610dfe57600080fd5b6000809054906101000a900473ffffffffffffffffffffffffffffffffffffffff1673ffffffffffffffffffffffffffffffffffffffff167ff8df31144d9c2f0f6b59d69b8b98abd5459d07f2742c4df920b25aae33c6482060405160405180910390a260008060006101000a81548173ffffffffffffffffffffffffffffffffffffffff021916908373ffffffffffffffffffffffffffffffffffffffff160217905550565b6000809054906101000a900473ffffffffffffffffffffffffffffffffffffffff1681565b600080600160006002548152602001908152602001600020600301836040518082805190602001908083835b602083101515610f1b5780518252602082019150602081019050602083039250610ef6565b6001836020036101000a0380198251168184511680821785525050505050509050019150509081526020016040518091039020600001805460018160011615610100020316600290049050111515610fdb576040517f08c379a00000000000000000000000000000000000000000000000000000000081526004018080602001828103825260188152602001807f5472616e736974696f6e20646f65736e2774206578697374000000000000000081525060200191505060405180910390fd5b610fe3611577565b8061123e575061123d600160006002548152602001908152602001600020600301836040518082805190602001908083835b60208310151561103a5780518252602082019150602081019050602083039250611015565b6001836020036101000a038019825116818451168082178552505050505050905001915050908152602001604051809103902060a06040519081016040529081600082018054600181600116156101000203166002900480601f0160208091040260200160405190810160405280929190818152602001828054600181600116156101000203166002900480156111125780601f106110e757610100808354040283529160200191611112565b820191906000526020600020905b8154815290600101906020018083116110f557829003601f168201915b5050505050815260200160018201548152602001600282016040805190810160405290816000820160009054906101000a900473ffffffffffffffffffffffffffffffffffffffff1673ffffffffffffffffffffffffffffffffffffffff1673ffffffffffffffffffffffffffffffffffffffff16815260200160018201546000191660001916815250508152602001600482016040805190810160405290816000820160009054906101000a900473ffffffffffffffffffffffffffffffffffffffff1673ffffffffffffffffffffffffffffffffffffffff1673ffffffffffffffffffffffffffffffffffffffff168152602001600182015460001916600019168152505081526020016006820160009054906101000a900460ff16151515158152505061183d565b5b9050919050565b60008060008060009054906101000a900473ffffffffffffffffffffffffffffffffffffffff1673ffffffffffffffffffffffffffffffffffffffff163373ffffffffffffffffffffffffffffffffffffffff161415156112a557600080fd5b60016000878152602001908152602001600020925082600301858560405180838380828437820191505092505050908152602001604051809103902060060160009054906101000a900460ff161561144657600090505b82600201805490508110156113ca57848460405180838380828437820191505092505050604051809103902060001916836002018281548110151561133d57fe5b9060005260206000200160405180828054600181600116156101000203166002900480156113a25780601f106113805761010080835404028352918201916113a2565b820191906000526020600020905b81548152906001019060200180831161138e575b505091505060405180910390206000191614156113bd578091505b80806001019150506112fc565b8260020160018460020180549050038154811015156113e557fe5b90600052602060002001836002018281548110151561140057fe5b906000526020600020019080546001816001161561010002031660029004611429929190611b96565b50600183600201818180549050039150816114449190611c1d565b505b8260030185856040518083838082843782019150509250505090815260200160405180910390206000808201600061147e91906119cd565b600182016000905560028201600080820160006101000a81549073ffffffffffffffffffffffffffffffffffffffff02191690556001820160009055505060048201600080820160006101000a81549073ffffffffffffffffffffffffffffffffffffffff0219169055600182016000905550506006820160006101000a81549060ff02191690555050505050505050565b6000809054906101000a900473ffffffffffffffffffffffffffffffffffffffff1673ffffffffffffffffffffffffffffffffffffffff163373ffffffffffffffffffffffffffffffffffffffff1614151561156b57600080fd5b61157481611886565b50565b60008060006001600060025481526020019081526020016000206002019150600090505b81805490508110156118335761181860016000600254815260200190815260200160002060030183838154811015156115d057fe5b9060005260206000200160405180828054600181600116156101000203166002900480156116355780601f10611613576101008083540402835291820191611635565b820191906000526020600020905b815481529060010190602001808311611621575b5050915050908152602001604051809103902060a06040519081016040529081600082018054600181600116156101000203166002900480601f0160208091040260200160405190810160405280929190818152602001828054600181600116156101000203166002900480156116ed5780601f106116c2576101008083540402835291602001916116ed565b820191906000526020600020905b8154815290600101906020018083116116d057829003601f168201915b5050505050815260200160018201548152602001600282016040805190810160405290816000820160009054906101000a900473ffffffffffffffffffffffffffffffffffffffff1673ffffffffffffffffffffffffffffffffffffffff1673ffffffffffffffffffffffffffffffffffffffff16815260200160018201546000191660001916815250508152602001600482016040805190810160405290816000820160009054906101000a900473ffffffffffffffffffffffffffffffffffffffff1673ffffffffffffffffffffffffffffffffffffffff1673ffffffffffffffffffffffffffffffffffffffff168152602001600182015460001916600019168152505081526020016006820160009054906101000a900460ff16151515158152505061183d565b156118265760019250611838565b808060010191505061159b565b600092505b505090565b600061184c8260400151611980565b1561187c5761185e8260600151611980565b508160200151600281905550611872611577565b5060019050611881565b600090505b919050565b600073ffffffffffffffffffffffffffffffffffffffff168173ffffffffffffffffffffffffffffffffffffffff16141515156118c257600080fd5b8073ffffffffffffffffffffffffffffffffffffffff166000809054906101000a900473ffffffffffffffffffffffffffffffffffffffff1673ffffffffffffffffffffffffffffffffffffffff167f8be0079c531659141344cd1fd0a4f28419497f9722a3daafe3b4186f6b6457e060405160405180910390a3806000806101000a81548173ffffffffffffffffffffffffffffffffffffffff021916908373ffffffffffffffffffffffffffffffffffffffff16021790555050565b6000816000015173ffffffffffffffffffffffffffffffffffffffff168260200151604051808260001916600019168152602001915050600060405180830381855af49150509050919050565b50805460018160011615610100020316600290046000825580601f106119f35750611a12565b601f016020900490600052602060002090810190611a119190611c49565b5b50565b5080546000825590600052602060002090810190611a339190611c6e565b50565b828054600181600116156101000203166002900490600052602060002090601f016020900481019282601f10611a7757805160ff1916838001178555611aa5565b82800160010185558215611aa5579182015b82811115611aa4578251825591602001919060010190611a89565b5b509050611ab29190611c49565b5090565b828054828255906000526020600020908101928215611b05579160200282015b82811115611b04578251829080519060200190611af4929190611a36565b5091602001919060010190611ad6565b5b509050611b129190611c6e565b5090565b828054600181600116156101000203166002900490600052602060002090601f016020900481019282601f10611b5757803560ff1916838001178555611b85565b82800160010185558215611b85579182015b82811115611b84578235825591602001919060010190611b69565b5b509050611b929190611c49565b5090565b828054600181600116156101000203166002900490600052602060002090601f016020900481019282601f10611bcf5780548555611c0c565b82800160010185558215611c0c57600052602060002091601f016020900482015b82811115611c0b578254825591600101919060010190611bf0565b5b509050611c199190611c49565b5090565b815481835581811115611c4457818360005260206000209182019101611c439190611c6e565b5b505050565b611c6b91905b80821115611c67576000816000905550600101611c4f565b5090565b90565b611c9791905b80821115611c935760008181611c8a91906119cd565b50600101611c74565b5090565b905600a165627a7a7230582029907be9aaef17cc17fe674d43b42b23c1ca1ed743ec98d0aa64ee5c492817700029",
  "source": "pragma solidity ^0.4.24;\n\nimport \"./DefinableStateMachine.sol\";\n\ncontract StateMachine is DefinableStateMachine {\n\n    function transition(string _name) public returns (bool) {\n        require(bytes(states[stateId].transitions[_name].name).length > 0, \"Transition doesn't exist\");\n        \n        return executeAutoTransition() || executeTransition(states[stateId].transitions[_name]);\n    }\n\n    function executeAutoTransition() internal returns (bool) {\n        string[] storage autoTransitions = states[stateId].autoTransitions;\n\n        for(uint256 i = 0; i < autoTransitions.length; i++) {\n            if(executeTransition(states[stateId].transitions[autoTransitions[i]]))\n                return true;\n        }\n        \n        return false;\n    }\n\n    function executeTransition(Transition _transition) internal returns (bool) {\n        if(executeCall(_transition.condition)) {\n            executeCall(_transition.trigger);\n            stateId = _transition.nextStateId;\n\n            executeAutoTransition();\n            return true;\n        }\n        \n        return false;\n    }\n\n    function executeCall(Func _call) internal returns (bool) {\n        return _call.contractAddress.delegatecall(_call.signature);\n    }\n}",
  "sourcePath": "/home/darek/state-machine/contracts/StateMachine.sol",
  "compiler": {
    "name": "solc",
    "version": "0.4.24+commit.e67f0147.Emscripten.clang"
  },
  "schemaVersion": "2.0.1",
  "updatedAt": "2018-09-15T15:31:30.621Z"
}